:100000000C942A000C9447000C9447000C94470071
:100010000C9447000C9447000C9447000C94470044
:100020000C9447000C9447000C9447000C94470034
:100030000C9447000C9447000C9447000C94470024
:100040000C9447000C9447000C9447000C94470014
:100050000C94470011241FBECFE5D8E0DEBFCDBF12
:1000600010E0A0E6B0E0E8EAF2E102C005900D92EF
:10007000A036B107D9F710E0A0E6B0E001C01D92AC
:10008000AC37B107E1F70E9455070C9452090C9464
:10009000000011B880E280B9089594EA96BF06B6D0
:1000A00007FEFDCF91B1987F983071F483B984E851
:1000B00086BF06B607FEFDCF81B1887F883131F05B
:1000C000803231F482E0089580E0089581E008955F
:1000D00083E0089594EA96BF06B607FEFDCF91B17E
:1000E000987F903171F483B984E886BF06B607FE25
:1000F000FDCF81B1887F803431F0803231F482E0ED
:10010000089580E0089581E0089583E0089583B91B
:1001100084E886BF06B607FEFDCF81B1887F8832AE
:1001200021F0803321F481E0089580E0089582E099
:10013000089584EC86BF06B607FEFDCF83B108950F
:1001400084E886BF06B607FEFDCF83B1089584E933
:1001500086BF06B604FCFDCF08958FE799EAA3E0B9
:1001600081509040A040E1F700C0000080ED0E9467
:100170004D0089E10E94870087E00E9487000E946D
:10018000A70080ED0E944D008BE60E94870081E071
:100190000E9487000E94A70080ED0E944D008AE126
:1001A0000E94870080E00E9487000E94A70080EDE7
:1001B0000E944D008BE10E94870088E10E94870029
:1001C0000E94A70080ED0E944D008CE10E948700F4
:1001D00080E00E9487000E94A70080ED0E944D00F1
:1001E0008FE10E94870080E00E9487000E94A700A4
:1001F00080ED0E944D0083E20E94870080E00E9413
:1002000087000E94A70080ED0E944D008DE10E94B2
:10021000870080E00E9487000E94A70080ED0E9476
:100220004D008EE10E94870080E00E9487000E94BE
:10023000A70080ED0E944D0080E20E94870080E0D0
:100240000E9487000E94A70080ED0E944D0082E27C
:100250000E94870080E00E9487000E94A70080ED36
:100260000E944D0081E20E94870080E00E9487008A
:100270000E94A70080ED0E944D0084E20E9487004A
:1002800080E00E9487000E94A70080ED0E944D0040
:1002900086E20E94870080E00E9487000E94A700FB
:1002A00080ED0E944D0085E20E94870080E00E9460
:1002B00087000E94A70080ED0E944D0087E20E9407
:1002C000870080E00E9487000E94A70080ED0E94C6
:1002D0004D0089E20E94870080E00E9487000E9412
:1002E000A70080ED0E944D0088E20E94870080E018
:1002F0000E9487000E94A70080ED0E944D008AE2C4
:100300000E94870080E00E9487000E94A70080ED85
:100310000E944D008CE20E94870080E00E948700CE
:100320000E94A70080ED0E944D008BE20E94870092
:1003300080E00E9487000E94A70080ED0E944D008F
:100340008DE20E94870080E00E9487000E94A70043
:1003500080ED0E944D008FE20E94870080E00E94A5
:1003600087000E94A70080ED0E944D008EE20E944F
:10037000870080E00E9487000E94A70080ED0E9415
:100380004D0080E30E94870080E00E9487000E9469
:10039000A70080ED0E944D0082E30E94870080E06C
:1003A0000E9487000E94A70080ED0E944D0081E31B
:1003B0000E94870080E00E9487000E94A70080EDD5
:1003C0000E944D0084E30E94870080E00E94870025
:1003D0000E94A70080ED0E944D0083E30E948700E9
:1003E00080E00E9487000E94A70080ED0E944D00DF
:1003F00085E30E94870080E00E9487000E94A7009A
:1004000080ED0E944D0087E30E94870080E00E94FB
:1004100087000E94A70080ED0E944D0088E30E94A3
:10042000870081E00E9487000E94A70080ED0E9463
:100430004D0083E60E94870080E00E9487000E94B2
:10044000A70080ED0E944D0084E60E94870080E0B6
:100450000E9487000E94A70080ED0E944D0085E663
:100460000E94870080E00E9487000E94A70080ED24
:100470000E944D0086E60E94870080E00E9487006F
:100480000E94A70080ED0E944D0087E60E94870031
:1004900080E00E9487000E94A70080ED0E944D002E
:1004A00088E60E94870080E00E9487000E94A700E3
:1004B00080ED0E944D0089E60E94870080E00E9446
:1004C00087000E94A70080ED0E944D008AE60E94EE
:1004D000870080E00E9487000E94A70080ED0E94B4
:1004E0004D008CE60E94870080E00E9487000E94F9
:1004F000A70080ED0E944D0084E70E94870080E005
:100500000E9487000E94A700089580ED0E944D0080
:100510008BE30E94870081ED0E946A0008954F924C
:100520005F926F927F928F929F92AF92BF92CF9283
:10053000DF92EF92FF920F931F93CF935C014B01D9
:100540003A0129010E9485020E949900C82F0E9449
:1005500099003C2F20E0682F70E0622B732B709580
:1005600061957F4F882777FD8095982F0E9414080A
:10057000DC01CB01F50180839183A283B3830E94C8
:100580009900C82F0E9499003C2F20E0682F70E04E
:10059000622B732B709561957F4F882777FD80952F
:1005A000982F0E941408DC01CB01F4018083918311
:1005B000A283B3830E949900C82F0E9499003C2F08
:1005C00020E0682F70E0622B732B709561957F4F50
:1005D000882777FD8095982F0E941408DC01CB01B5
:1005E000F30180839183A283B3830E949900C82F73
:1005F0000E9499007C2F60E090E0682B792B88277F
:1006000077FD8095982F0E941408DC01CB01F20140
:1006100080839183A283B3830E949900C82F0E9494
:1006200099003C2F20E090E0822B932B66277727C0
:10063000681B790B882777FD8095982F0E941408F6
:10064000DC01CB01F80180839183A283B3830E94F4
:100650009900C82F0E9499003C2F20E090E0282BA1
:10066000392B66277727621B730B882777FD8095C8
:10067000982F0E941408DC01CB01F701808391833D
:10068000A283B3830E949900C82F0E94A0003C2F30
:1006900020E0682F70E0262B372B66277727621B18
:1006A000730B882777FD8095982F0E941408DC0132
:1006B000CB01F60180839183A283B3830E94A700BC
:1006C000CF911F910F91FF90EF90DF90CF90BF904F
:1006D000AF909F908F907F906F905F904F90089514
:1006E0006115710509F0A0C0009711F4D89808951C
:1006F0008130910511F4D99808958230910511F453
:10070000DA9808958330910511F4DB9808958430C8
:10071000910511F4DC9808958530910511F4DD9868
:1007200008958630910511F4DE980895873091057B
:1007300011F4DF9808958A30910511F4C098089556
:100740008B30910511F4C19808958C30910511F406
:10075000C29808958D30910511F4C39808958E3094
:10076000910511F4C49808958F30910511F4C5983E
:1007700008958031910511F4C6980895813191054D
:1007800011F4C79808958431910511F4A89808953B
:100790008531910511F4A99808958631910511F4D8
:1007A000AA9808958731910511F4AB98089588317E
:1007B000910511F4AC9808958931910511F4AD9823
:1007C00008958A31910511F4AE9808958B31910501
:1007D00011F4AF9808958E31910511F49098089511
:1007E0008F31910511F4919808958032910511F49B
:1007F000929808958132910511F493980895823268
:10080000910511F4949808958332910511F4959807
:1008100008958432910511F49698089585329105D2
:1008200009F0A0C097980895009711F4D89A0895F8
:100830008130910511F4D99A08958230910511F40F
:10084000DA9A08958330910511F4DB9A0895843083
:10085000910511F4DC9A08958530910511F4DD9A23
:1008600008958630910511F4DE9A08958730910538
:1008700011F4DF9A08958A30910511F4C09A089511
:100880008B30910511F4C19A08958C30910511F4C3
:10089000C29A08958D30910511F4C39A08958E304F
:1008A000910511F4C49A08958F30910511F4C59AF9
:1008B00008958031910511F4C69A0895813191050A
:1008C00011F4C79A08958431910511F4A89A0895F6
:1008D0008531910511F4A99A08958631910511F495
:1008E000AA9A08958731910511F4AB9A0895883139
:1008F000910511F4AC9A08958931910511F4AD9ADE
:1009000008958A31910511F4AE9A08958B319105BD
:1009100011F4AF9A08958E31910511F4909A0895CB
:100920008F31910511F4919A08958032910511F457
:10093000929A08958132910511F4939A0895823222
:10094000910511F4949A08958332910511F4959AC2
:1009500008958432910511F4969A0895853291058F
:1009600009F4979A0895CF93DF93D82FC82F80FF6B
:1009700007C08EE190E061E070E00E94700306C065
:100980008EE190E060E070E00E947003C1FF07C05C
:100990008FE190E061E070E00E94700306C08FE19B
:1009A00090E060E070E00E947003C2FF07C080E248
:1009B00090E061E070E00E94700306C080E290E089
:1009C00060E070E00E947003C3FF07C081E290E026
:1009D00061E070E00E94700306C081E290E060E098
:1009E00070E00E947003C4FF07C082E290E061E003
:1009F00070E00E94700306C082E290E060E070E068
:100A00000E947003C5FF07C083E290E061E070E0E0
:100A10000E94700306C083E290E060E070E00E94F4
:100A20007003C6FF07C084E290E061E070E00E94BE
:100A3000700306C084E290E060E070E00E94700302
:100A4000DD233CF485E290E061E070E00E947003F9
:100A500006C085E290E060E070E00E947003DF91E4
:100A6000CF910895CF93C82F8AE190E060E070E0C5
:100A70000E9470038C2F0E94B3048BE190E061E030
:100A800070E00E9470038FEC97E00197F1F700C0CF
:100A900000008BE190E060E070E00E9470038FEC5A
:100AA00097E00197F1F700C00000CF91089581E031
:100AB0000E9432050895813029F4862F80580E94C3
:100AC00032050895823021F4862F80540E94320529
:100AD00008958AE190E060E070E00E9470038BE18D
:100AE00090E060E070E00E9470038FE39CE9019762
:100AF000F1F700C0000080E30E9432058FE097E22A
:100B00000197F1F700C0000080E30E9432058FECEE
:100B100097E00197F1F700C0000080E30E943205E2
:100B20008FE19EE40197F1F700C0000088E30E9486
:100B300032058CE00E94320581E00E94320586E099
:100B40000E9432050895CF93C82F8AE190E061E0BA
:100B500070E00E9470038C2F0E94B3048BE190E040
:100B600061E070E00E9470038FEC97E00197F1F76D
:100B700000C000008BE190E060E070E00E94700334
:100B80008FEC97E00197F1F700C00000CF91089536
:100B9000CF93DF93EC018881882331F021960E9466
:100BA000A30589918823D9F7DF91CF9108958CE12E
:100BB0000E943205089588E10E9432050895CF937E
:100BC000DF93C82F80FF07C082E290E061E070E011
:100BD0000E94700306C082E290E060E070E00E9434
:100BE0007003C1FF07C083E290E061E070E00E9403
:100BF000700306C083E290E060E070E00E94700342
:100C0000C2FF07C084E290E061E070E00E947003E0
:100C100006C084E290E060E070E00E947003C3FFD1
:100C200007C085E290E061E070E00E94700306C0BA
:100C300085E290E060E070E00E947003DF91CF9168
:100C40000895CF93C82F8AE190E060E070E00E94A1
:100C500070038C2F0E94DF058BE190E061E070E073
:100C60000E9470038FEC97E00197F1F700C000003D
:100C70008BE190E060E070E00E9470038FEC97E001
:100C80000197F1F700C00000CF91089580E00E9425
:100C9000210681E00E9421060895CF93C62F81305E
:100CA00059F4862F805882958F700E9421068C2FD0
:100CB0008F700E9421060CC0823051F4862F805420
:100CC00082958F700E9421068C2F8F700E942106C2
:100CD000CF91089580E00E94DF058FE39CE90197A2
:100CE000F1F700C0000083E00E9421068FE097E248
:100CF0000197F1F700C0000083E00E9421068FEE0B
:100D000095E50197F1F700C0000083E00E942106FD
:100D100082E00E94210682E00E94210688E00E9473
:100D2000210680E00E9421068CE00E94210680E0DE
:100D30000E94210686E00E9421060895CF93C82FC5
:100D40008AE190E061E070E00E9470038C2F829550
:100D50008F700E94DF058BE190E061E070E00E94FF
:100D600070038FEC97E00197F1F700C000008BE172
:100D700090E060E070E00E9470038FEC97E00197D4
:100D8000F1F700C000008C2F8F700E94DF058BE10F
:100D900090E061E070E00E9470038FEC97E00197B3
:100DA000F1F700C000008BE190E060E070E00E948D
:100DB00070038FEC97E00197F1F700C00000CF912E
:100DC0000895CF93DF93EC018881882331F0219639
:100DD0000E949E0689918823D9F7DF91CF910895CB
:100DE00081E00E9421068CE00E942106089581E0A6
:100DF0000E94210688E00E94210608950E94E107D2
:100E0000DC01CB01009769F020E030E0EAE0F0E09F
:100E10002F5F3F4FBF010E942B09CB010097C1F705
:100E200002C020E030E0822F932F0895CF92DF920E
:100E3000EF92FF920F931F93CF93DF936B017C018F
:100E4000EA010E94FE068C01C701B60120E030E4F1
:100E50004CE156E40E947C080E94E107DC01CB01D2
:100E6000009761F0FE012AE030E0B9010E942B09F1
:100E7000805D8193862F972F0097B9F788819C8199
:100E800098838C8389819B8199838B83FE01E00FFA
:100E9000F11F8EE280831D82DF91CF911F910F9110
:100EA000FF90EF90DF90CF900895CF93DF9300D025
:100EB00000D000D0CDB7DEB78FEF81BB84BB87BB3E
:100EC00018BA0E9449000E94AD000E9469050F2EC9
:100ED000F4E74F2EF0E05F2EF02D0F2EFCE62F2EC4
:100EE000F0E03F2EF02D0F2EF4E6AF2EF0E0BF2EF7
:100EF000F02D0F2EF8E78F2EF0E09F2EF02D0F2E05
:100F0000F0E76F2EF0E07F2EF02DC201B10140E638
:100F100050E028E630E08501740163010E948F02F1
:100F200060916C0070916D0080916E0090916F00E7
:100F300020E030E040E858E30E947C08162F072F9D
:100F4000F82EE92E60917400709175008091760002
:100F50009091770020E030E040E858E30E947C0860
:100F6000AE014F5F5F4F0E94160781E061E00E9473
:100F70005B05CE0101960E94C8058FEF99E6A8E1B6
:100F800081509040A040E1F700C000000E9457054A
:100F9000812F902FAF2DBE2DBC01CD012DEC3CEC4F
:100FA0004CE151E40E947C0820E030E040E151E453
:100FB0000E94780818161CF49FEF98BBA6CF18BAA9
:100FC000A4CF04D06894B1118DC0089570D088F07A
:100FD0009F5790F0B92F9927B751A0F0D1F0660F25
:100FE000771F881F991F1AF0BA95C9F712C0B13040
:100FF00081F077D0B1E0089574C0672F782F8827EB
:10100000B85F39F0B93FCCF3869577956795B3957E
:10101000D9F73EF490958095709561957F4F8F4FED
:101020009F4F0895E89409C097FB3EF490958095F2
:10103000709561957F4F8F4F9F4F9923A9F0F92F9E
:1010400096E9BB279395F695879577956795B7951C
:10105000F111F8CFFAF4BB0F11F460FF1BC06F5F02
:101060007F4F8F4F9F4F16C0882311F096E911C014
:10107000772321F09EE8872F762F05C0662371F035
:1010800096E8862F70E060E02AF09A95660F771F49
:10109000881FDAF7880F9695879597F9089557FD79
:1010A0009058440F551F59F05F3F71F04795880FD6
:1010B00097FB991F61F09F3F79F08795089512166D
:1010C00013061406551FF2CF4695F1DF08C0161619
:1010D00017061806991FF1CF8695710561050894CA
:1010E0000895E894BB2766277727CB0197F90895E1
:1010F00066D008F48FEF08950BD09CC08DD028F0F7
:1011000092D018F0952309F07EC083C01124EACF55
:10111000C6DFA0F3959FD1F3950F50E0551F629F56
:10112000F001729FBB27F00DB11D639FAA27F00D40
:10113000B11DAA1F649F6627B00DA11D661F829F67
:101140002227B00DA11D621F739FB00DA11D621F4C
:10115000839FA00D611D221F749F3327A00D611D69
:10116000231F849F600D211D822F762F6A2F11244B
:101170009F5750408AF0E1F088234AF0EE0FFF1F9E
:10118000BB1F661F771F881F91505040A9F79E3FD5
:10119000510570F038C0A6CF5F3FECF3983EDCF30A
:1011A000869577956795B795F795E7959F5FC1F712
:1011B000FE2B880F911D9695879597F90895990FA5
:1011C0000008550FAA0BE0E8FEEF16161706E80711
:1011D000F907C0F012161306E407F50798F0621B32
:1011E000730B840B950B39F40A2661F0232B242B07
:1011F000252B21F408950A2609F4A140A6958FEF26
:10120000811D811D089597F99F6780E870E060E077
:1012100008959FEF80EC089500240A94161617068F
:1012200018060906089500240A94121613061406D7
:1012300005060895092E0394000C11F4882352F03A
:10124000BB0F40F4BF2B11F460FF04C06F5F7F4FF2
:101250008F4F9F4F089597FB092E07260AD077FDE1
:1012600004D00CD006D000201AF4709561957F4F01
:101270000895F6F7909581959F4F0895AA1BBB1B83
:1012800051E107C0AA1FBB1FA617B70710F0A61B86
:10129000B70B881F991F5A95A9F780959095BC01A7
:0812A000CD010895F894FFCF81
:00000001FF
